S00A000041322E73726563A7
S11300000C945E010C947B010C947B010C947B0199
S11300100C947B010C94A8020C947B010C947B013E
S11300200C947B010C947B010C947B010C947B015C
S11300300C947B010C947B010C947B010C947B014C
S11300400C94F9140C947B010C947B010C947B01AB
S11300500C94D2130C9490130C947B010C947B019C
S11300600C947B010C947B010C947B010C947B011C
S11300700C947B010C947B010C947B0144696365B3
S11300803A20526F6C6C696E6700446963653A206C
S113009053746F707065640047414D45205041555D
S11300A05345440047414D45205354415254005058
S11300B0726573732028712920546F204D757465FF
S11300C020536F756E640050726573732028732912
S11300D02F28416E7920427574746F6E2920546FF5
S11300E0205374617274204E65772047616D6500FA
S11300F047414D45204F5645520050726573732059
S113010028712920546F204D75746520536F756EC6
S113011064005072657373202870292F2842332994
S113012020546F2050617573652047616D650050E0
S113013072657373202865292F286D292F28682953
S113014020546F2053656C65637420446966666946
S113015063756C747900446963653A2053746F70F5
S11301607065640047414D45205354415254005436
S1130170696D652052656D61696E696E673A20002C
S11301804D6F6465203A204D756C74692D506C6117
S1130190796572004D6F6465203A2053696E676C0F
S11301A0652D506C617965720050726573732028F7
S11301B0712920546F204D75746520536F756E64DA
S11301C0005072657373202873292F28416E79209B
S11301D0427574746F6E2920546F20537461727465
S11301E02053656C6563746564204C6576656C00AA
S11301F05072657373202831292F28322920546FB7
S11302002053656C656374204D756C74692D506C56
S1130210617965722047616D650050726573732062
S113022028622920546F2053656C656374204C65E3
S113023076656C005072657373202865292F286DCC
S1130240292F28682920546F2053656C6563742016
S1130250446966666963756C7479004E4557204736
S1130260414D450043535345323031302F373230FE
S113027031204132206279204C49414D204D554C6A
S11302804845524E202D2034373432383734380024
S1130290536E616B657320616E64204C61646465A8
S11302A07273001B5B3F32356C001B5B4B001B5BA6
S11302B0324A001B5B25643B2564480011241FBEA1
S11302C0CFEFD8E0DEBFCDBF15E0A0E0B1E0E0EEB7
S11302D0F4E302C005900D92A23AB107D9F728E0E1
S11302E0A2EAB5E001C01D92A630B207E1F70E9470
S11302F0BF120C946E1A0C9400000F939093A305F4
S11303008093A2056093360640933F0630933906E6
S1130310209338060E94E9146093400670934106C6
S113032080934206909343060093370610923E064C
S113033081E08093A5050F910895CF93DF93CDB706
S1130340DEB728970FB6F894DEBF0FBECDBFFE010F
S1130350319688E0DF011D928A95E9F7809137068E
S1130360882319F0813029F008C00E94310D80E003
S113037005C00E942A0D8FE001C080E0209136065E
S113038090913E069217E8F4E091A205F091A3053E
S1130390E90FF11D208198E012C0222374F4E92FA3
S11303A0092E000CFF0B319741E050E04C0F5D1F0C
S11303B0E40FF51F30913F063083220F9150191638
S11303C064F3BE016F5F7F4F0E940D0D809136066E
S11303D090E0809620913E06422F50E0481759073E
S11303E024F42F5F20933E0604C010923E06109220
S11303F0A50528960FB6F894DEBF0FBECDBFDF91DA
S1130400CF9108950E94E91460933A0670933B06D5
S113041080933C0690933D060E94080A0895CF926B
S1130420DF92EF92FF920E94E9146B017C018091AC
S1130430A40581113EC08091A5058823F9F020917F
S11304403806309139068091400690914106A0917A
S11304504206B0914306820F931FA11DB11DC81619
S1130460D906EA06FB0650F00E949D01C0924006A0
S1130470D0924106E0924206F092430680913A06F9
S113048090913B06A0913C06B0913D068C599F4F3C
S1130490AF4FBF4FC816D906EA06FB0650F00E94BC
S11304A0080AC0923A06D0923B06E0923C06F092CB
S11304B03D06FF90EF90DF90CF9008958093A405C0
S11304C008950F9300E020E530E040EF6EE380E014
S11304D091E00E947D010F9108951092A505089561
S11304E0E8E6F0E08081826080838BB382608BBB1E
S11304F0ECE6F0E080818F6080831092A605089579
S11305008091A605181614F58091A7056FB7F89485
S113051091E009C0F901E955FA4F4081F901EA5522
S1130520FA4F40839F5F292F30E04091A605042EA7
S1130530000C550B241735076CF39091A6059150C8
S11305409093A60566231CF4789408958FEF08957C
S11305501F920F920FB60F9211242F933F934F9334
S11305608F939F93EF93FF9343B14F7080E026C026
S11305709091A60594300CF5242F30E0082E02C08B
S1130580359527950A94E2F720FF17C02091AB0513
S113059030E0082E02C0359527950A94E2F720FD35
S11305A00CC0E091A60591E09E0F9093A6050E2E37
S11305B0000CFF0BE955FA4F80838F5F8430C0F243
S11305C04093AB05FF91EF919F918F914F913F9194
S11305D02F910F900FBE0F901F9018958AB18061D4
S11305E08AB983EF8093800089E18093810010921F
S11305F0530610925B0610925A0608959C0140E03F
S113060050E060E472E48FE090E00E94DC16C901DF
S11306100895CF92DF92EF92FF926B017C01BA01B1
S113062080E090E00E94D515A70196010E94631610
S113063020E030E048EC52E40E9434150E94A615F4
S1130640CB01FF90EF90DF90CF900895E1E8F0E0C8
S113065080818E7F808381E080935B060895E1E84A
S1130660F0E080818160808310925B0608950F938F
S11306701F939093450680934406409354065093E9
S11306805506609356067093570620934B060E94B6
S1130690E914609346067093470680934806909346
S11306A0490660934F0670935006809351069093C9
S11306B052061093590600935806809153068111EF
S11306C002C00E942F031F910F910895EF92FF9291
S11306D00F931F93CF93DF93CDB7DEB72B970FB64E
S11306E0F894DEBF0FBECDBFE982FA820B831C8370
S11306F02D833E83588769877A878B870885198578
S11307002A853B85842F4B815C816D817E81282FD6
S113071089819A810E9437032B960FB6F894DEBF25
S11307200FBECDBFDF91CF911F910F91FF90EF903E
S11307300895EF92FF920F931F93FC0190935D062F
S113074080935C0610924C0660934A0681E0809385
S11307505A06E080F180028113812481358146812B
S113076057816085718582850E9466031F910F9170
S1130770FF90EF9008950F931F9340915806509166
S1130780590600914F061091500620915106309160
S11307905206040F151F211D311D41E0601771071A
S11307A08207930708F040E0842F1F910F9108956A
S11307B0CF92DF92EF92FF920F931F93CF93DF9329
S11307C0CDB7DEB72B970FB6F894DEBF0FBECDBF03
S11307D00E94E9146B017C010E94BB03882309F485
S11307E044C080915306811140C080914606909187
S11307F04706A0914806B09149060596A11DB11D72
S1130800C816D906EA06FB06B0F020914B06809183
S1130810440690914506820F911D27FD9A95909369
S1130820450680934406C0924606D0924706E0925D
S11308304806F092490680914406909145060E942C
S1130840FE02AC0190934E0680934D0660915406CF
S11308507091550680915606909157060E9409039F
S113086090935F0680935E0638C080915A06882371
S113087071F18091530681112AC080914C069091A8
S11308804A06891708F58F5F80934C06E0915C0651
S1130890F0915D069BE0899FE00DF11D11248BE032
S11308A0DE01119601900D928A95E1F7E980FA80B4
S11308B00B811C812D813E814F81588569857A8504
S11308C08B850E94660309C010925A0606C0809167
S11308D05B06811102C00E94260380915E069091FE
S11308E05F06009731F0019790938B0080938A0004
S11308F004C010928B0010928A0080914D06909152
S11309004E06019790938900809388002B960FB62A
S1130910F894DEBF0FBECDBFDF91CF911F910F9131
S1130920FF90EF90DF90CF900895EF92FF920F9396
S11309301F939091530681E0891B80935306E090A6
S1130940CC04F090CD040091CE041091CF042091FA
S1130950D0043091D1044091D2045091D3046091D9
S1130960D4047091D5048091D6040E9466031F912B
S11309700F91FF90EF900895809153060895EF92A0
S1130980FF920F931F9380935306E090CC04F09052
S1130990CD040091CE041091CF042091D004309165
S11309A0D1044091D2045091D3046091D404709145
S11309B0D5048091D6040E9466031F910F91FF9085
S11309C0EF9008958091AC0508958093AC05089547
S11309D0109261068AB188608AB90895EF92FF92F5
S11309E00F931F9380916106882369F16CE070E096
S11309F08AE090E00E94A5148AE890E09F938F9388
S1130A000E9480178BB1877F8BB981E08093600649
S1130A10E090D704F090D8040091D9041091DA043E
S1130A202091DB043091DC044091DD045091DE041C
S1130A306091DF047091E0048091E1040E946603F8
S1130A400F900F902DC00E94E9140E943C0D6CE0A1
S1130A5070E08AE090E00E94A5148CE790E09F93F8
S1130A608F930E9480178BB188608BB9E090D70474
S1130A70F090D8040091D9041091DA042091DB0499
S1130A803091DC044091DD045091DE046091DF0478
S1130A907091E0048091E1040E9466030F900F902E
S1130AA09091610681E0891B809361061F910F91EB
S1130AB0FF90EF90089580916106089580916006FB
S1130AC0109260060895809162068F5F809362069B
S1130AD0873018F081E08093620680916206089561
S1130AE086E00E943F0D8F5F08950F931F93CF936D
S1130AF0DF93CDB7DEB728970FB6F894DEBF0FBEED
S1130B00CDBF0E94380D80E090E008C0E1E0F0E045
S1130B10EC0FFD1FE80FF91F108201968830910534
S1130B20ACF308E010E008C0BE016F5F7F4F802F78
S1130B300E940D0D0F5F1F4F00311105ACF380E0D3
S1130B4090E001C0019680319105E4F328960FB638
S1130B50F894DEBF0FBECDBFDF91CF911F910F91EF
S1130B6008951F93CF93DF93CDB7DEB728970FB6C1
S1130B70F894DEBF0FBECDBF0E94380D10E029C02F
S1130B80E12FF0E0EE51FB4F908190FF02C02FE087
S1130B9001C020EF87E013C0992344F4E1E0F0E0C2
S1130BA0EC0FFD1FE80FF11D208307C0E1E0F0E02A
S1130BB0EC0FFD1FE80FF11D1082990F8150811178
S1130BC0EBCF1982BE016F5F7F4F812F0E940D0D05
S1130BD01F5F1031A8F228960FB6F894DEBF0FBE3F
S1130BE0CDBFDF91CF911F910895CF93DF93D82F7D
S1130BF0C62F842F0E948006803901F168F4803466
S1130C00C9F028F4803101F18032F1F011C080354F
S1130C1099F0803899F00CC0803D91F028F4803A26
S1130C2069F0803C69F004C0803E51F0803F51F08F
S1130C3040E00BC04CE309C04FED07C04FE005C0D6
S1130C4040EF03C04BEB01C045E367E06D1B8C2F05
S1130C500E94EE0CDF91CF910895109268061092D5
S1130C609B06109265061092CD06109264061092AF
S1130C7063061092CF061092CE0610929C06109234
S1130C8069061092660610926A0608950E942D065F
S1130C9040E460919B06809168060E94F50580916E
S1130CA03E01811107C040E56091CD068091650643
S1130CB00E94F5050895CF93C82F0E9475058C2FC7
S1130CC00E94900B0E94980B9093AF058093AE0501
S1130CD0CF910895883080F4603180F4E091AE05BE
S1130CE0F091AF0570E090E1899F600D711D1124B2
S1130CF0E60FF71F8081089580E0089580E008954D
S1130D00807F08958F700895FC019081DB012C9100
S1130D10203124F080E1821B8C9305C022231CF433
S1130D20205FDB012C93983024F088E0891B8083BA
S1130D300895992314F4985F90830895403419F02A
S1130D40403551F00895EDE9F6E02081DC012C9363
S1130D508181FB0180830895EBE6F6E02081DC01CC
S1130D602C938181FB01808308958034A9F0803520
S1130D70A9F10895DC011196AA0FBB1FA356B94F20
S1130D803C91880F991FFC01E356F94F308311966B
S1130D908C9181832F5F01C020E0822F90E03091FD
S1130DA06606432F032E000C550B8417950714F386
S1130DB03150309366060895DC011196AA0FBB1FCB
S1130DC0A559B94F3C91880F991FFC01E559F94F7A
S1130DD0308311968C9181832F5F01C020E0822F94
S1130DE090E030916A06432F032E000C550B8417B4
S1130DF0950714F3315030936A060895803419F03E
S1130E00803541F00EC081E090916606923054F432
S1130E1080E0089581E090916A0692301CF480E0AD
S1130E20089580E008958091690608959091690677
S1130E30890F8093690608957F928F929F92AF9253
S1130E40BF92CF92DF92EF92FF920F931F93CF93B3
S1130E50DF93C82F7B016A010E948206982E8C2F93
S1130E600E948006A82E80E8A81661F1E0ECAE127C
S1130E7033C02CC06C2F802F0E946A06782E0E94EB
S1130E808206B82E872D0E9480062A2D30E0205F2E
S1130E903F4F90E02817390749F49B1007C0F7012A
S1130EA00083F601C0838824839407C0219602C07E
S1130EB0C0E0D0E0C031D105ECF281100DC00F5F6D
S1130EC01F4F07C000E010E0812C03C000E010E0D9
S1130ED0812C0830110564F38A2DDF91CF911F9185
S1130EE00F91FF90EF90DF90CF90BF90AF909F90C5
S1130EF08F907F900895803419F0803551F00895D3
S1130F0080916806FB01808380919B06FA018083AF
S1130F10089580916506FB0180838091CD06FA01D6
S1130F20808308950F931F93CF93DF9300D0CDB7A1
S1130F30DEB7082F162F862F0E94FE0681111EC0D1
S1130F40AE014E5F5F4FBE016F5F7F4F812F0E94E6
S1130F507B0700939C06002331F0412F6A8189812D
S1130F600E94F5050BC00A811981602F812F0E9410
S1130F706A06482F602F812F0E94F5050F900F906D
S1130F80DF91CF911F910F910895803419F080352E
S1130F9031F008956093680640939B06089560932A
S1130FA065064093CD060895803419F0803519F014
S1130FB0089580E5089580E4089590916506981356
S1130FC006C09091CD06961302C0403551F490911D
S1130FD0680689130EC090919B0669130AC04034B9
S1130FE041F090913E01911104C0842F0E94D407D6
S1130FF008950E946A060895DF92EF92FF920F937C
S11310001F93CF93DF9300D0CDB7DEB7D82EE62E53
S1131010142F80916A06873124F480916606873103
S1131020BCF0412FBE016E5F7F4FCE0101960E943E
S11310309E06FA800981412F6F2D802F0E94DD07C3
S1131040482F6F2D802F0E94F505812F0E94B50631
S1131050103419F0103571F019C080916606E82F2C
S1131060EE0FFF0BE356F94FD082E1828F5F80933E
S113107066060CC080916A06E82FEE0FFF0BE55957
S1131080F94FD082E1828F5F80936A060F900F90B0
S1131090DF91CF911F910F91FF90EF90DF90089512
S11310A0AF92BF92CF92DF92EF92FF920F931F9372
S11310B0CF93DF9300D000D0CDB7DEB7F82EB62E95
S11310C0A42EE22EAE014E5F5F4FBE016F5F7F4FD5
S11310D08A2D0E947B070A8119814A2D602F812F56
S11310E00E94DD07482F602F812F0E94F505CF2C29
S11310F00F2C000CDD08DD201CF4D194C194D10820
S113110082E0C816D10464F48B2D0B2C000C990BCF
S113111099231CF491958195910902970CF449C087
S11311204A2D6A8189810E94FC0700E010E0812F2A
S1131130012E000C990B99231CF49195819591092A
S11311408C159D05ACF0802F002E000C990B992373
S11311501CF49195819591092B2D0B2C000C330BCC
S113116033231CF4319521953109821793070CF52B
S11311701F1514F41F5F03C0F1160CF411500B1566
S113118014F40F5F03C0B0160CF401508981810F71
S11311908C838A81800F8B83BE016D5F7F4FCE016C
S11311A004960E9484064A2D6B818C810E94FC0760
S11311B0BECF8981F80EF9828A818B0D8A83BE01A4
S11311C06E5F7F4FCE0101960E948406EE20C1F02F
S11311D0E090FD04F090FE040091FF0410910005DE
S11311E020910105309102054091030550910405B9
S11311F06091050570910605809107050E946603BC
S11312004A8169818A2D0E94C507CA94CD2851F06C
S11312108B2DBB0C990B99231CF491958195910905
S1131220019729F44A2D6A8189810E94F5050E945B
S113123002024A2D6A8189810E942D090F900F9024
S11312400F900F90DF91CF911F910F91FF90EF902E
S1131250DF90CF90BF90AF900895BF92CF92DF926E
S1131260EF92FF920F931F93CF93DF9300D0CDB7EC
S1131270DEB7C82ED62EB42E0E946A06C982DA8240
S1131280AE014E5F5F4FBE016F5F7F4F0E941C0730
S1131290803819F0803CD1F01EC0E090F204F09048
S11312A0F3040091F4041091F5042091F6043091B4
S11312B0F7044091F8045091F9046091FA04709194
S11312C0FB048091FC040E94660305C063E080E493
S11312D091E00E94990389818C196A816D198111A9
S11312E001C031F020E04B2D0E94500881E001C084
S11312F080E00F900F90DF91CF911F910F91FF909D
S1131300EF90DF90CF90BF900895DF92EF92FF921D
S11313100F931F93CF93DF9300D0CDB7DEB7F82E92
S1131320D62EAE014E5F5F4FBE016F5F7F4F8D2D96
S11313300E947B074D2D6A8189810E94FC0700E091
S113134010E02DC08A8180FF0EC09981292F092EBB
S1131350000C330B215031091AF09150998312C0BB
S11313608F5F8A830FC09981292F092E000C330BBC
S11313702F5F3F4F283031051CF49F5F998302C0D3
S11313808F5F8A836A81603124F08FE08A831982B7
S11313900BC04D2D89810E94FC070F5F1F4F8F2DBD
S11313A090E00817190774F28A8180311CF481E0F7
S11313B00E941607E090FD04F090FE040091FF04E3
S11313C0109100052091010530910205409103051B
S11313D050910405609105057091060580910705FB
S11313E00E9466034A8169818D2D0E94C5070E946F
S11313F002024D2D6A8189810E942D090F900F9060
S1131400DF91CF911F910F91FF90EF90DF9008959E
S11314100F931F93CF93DF9300D0CDB7DEB78091A6
S113142066061816DCF440E4BE016E5F7F4FCE0101
S113143001960E949E060A81198140E4602F812F43
S11314400E94DD07482F602F812F0E94F50580E45C
S11314500E94B50660E481E00E94920780916A06CA
S11314601816DCF440E5BE016E5F7F4FCE01019695
S11314700E949E060A81198140E5602F812F0E94F7
S1131480DD07482F602F812F0E94F50580E50E941B
S1131490B50660E581E00E9492078091660682307D
S11314A06CF040E4BE016E5F7F4FCE0101960E9456
S11314B09E0640E46A8189810E94F50580916A064E
S11314C082306CF040E5BE016E5F7F4FCE01019625
S11314D00E949E0640E56A8189810E94F5050F906D
S11314E00F90DF91CF911F910F910895FF920F9369
S11314F01F93CF93DF9300D0CDB7DEB7182F0E9490
S1131500FE06811125C0AE014E5F5F4FBE016F5FC5
S11315107F4F812F0E947B0780919C06882369F06E
S1131520FA800981412F6F2D802F0E94DD07482FFB
S11315306F2D802F0E94F50505C0412F6A81898196
S11315400E94F50590919C0681E0891B80939C067E
S11315500F900F90DF91CF911F910F91FF900895FD
S1131560EF92FF920F931F9380913F01813019F006
S1131570823029F007C082E080933F0103C081E0FC
S113158080933F01E0900805F090090500910A0559
S113159010910B0520910C0530910D0540910E051D
S11315A050910F05609110057091110580911205FD
S11315B00E94660380913F011F910F91FF90EF906D
S11315C00895EF92FF920F931F9310926406109266
S11315D063061092CF061092CE068093AD05E0907C
S11315E00805F090090500910A0510910B0520915A
S11315F00C0530910D0540910E0550910F05609139
S1131600100570911105809112050E9466031F91C7
S11316100F91FF90EF9008958091AD050895EF929A
S1131620FF920F931F9380933E01E0900805F09082
S1131630090500910A0510910B0520910C053091C4
S11316400D0540910E0550910F05609110057091A4
S11316501105809112050E9466031F910F91FF905E
S1131660EF90089580913E010895803419F08035FB
S113167059F014C08091630690916406019690938A
S113168064068093630608958091CE069091CF06F8
S113169001969093CF068093CE06089580E090E063
S11316A00895CF9360919B06809168060E946A0614
S11316B00E948006C82F6091CD06809165060E9425
S11316C06A060E948006982FC03279F08091AD0599
S11316D044E6849F900111244091CE065091CF0698
S11316E04217530738F0882329F080E48093670673
S11316F081E011C0903249F0409163065091640634
S11317004217530738F0882331F080E58093670649
S113171081E001C080E0CF9108958091670608952B
S1131720823019F081EE91E0089581E691E0089508
S1131730EF92FF920F931F93CF93DF937C0100E00E
S113174010E02CC0EFE0F0E0EC1BFD0BEE0FFF1FF0
S1131750EE0FFF1FEE0FFF1FEE0DFF1DE00FF11F39
S11317608081D801A295B295B07FBA27A07FBA270D
S1131770A055BA4FAC0FBD1F8C9380810E94800688
S1131780482F6C2F802F0E94F505219602C0C0E0DF
S1131790D0E0C031D105B4F20F5F1F4F08301105FE
S11317A0B4F380EB95E0DF91CF911F910F91FF90FF
S11317B0EF90089580E480937C0086E880937A001B
S11317C01092D0061092E40608958091D0068823E2
S11317D031F0ECE7F0E080818E7F808305C0ECE798
S11317E0F0E0808181608083EAE7F0E080818064BA
S11317F0808380917A0086FDFCCF2091780030911F
S113180079003093D9062093D8069091D006992375
S113181029F03093E2062093E10604C03093D30606
S11318202093D20681E0891B8093D006089580938B
S1131830E4061092D10688E592E09093DC0680934A
S1131840DB060895CF92DF92EF92FF920F931F93DE
S1131850CF93DF93EC018B018091E1069091E20636
S1131860893C22E0920720F08FEF8093E30609C0C1
S11318708833914020F481E08093E30602C0109203
S1131880E3068091D2069091D306893CF2E09F074B
S113189020F081E08093DA0609C08833914020F477
S11318A08FEF8093DA0602C01092DA060E94E914E0
S11318B028814091E306241371C0F80120813091FE
S11318C0DA0623136BC0411103C0332309F466C045
S11318D0C090D406D090D506E090D606F090D706F6
S11318E0F2E0CF0ED11CE11CF11C6C157D058E05B8
S11318F09F0598F02091E406211107C02091D1069C
S11319002F3F19F02F5F2093D1066093D406709374
S1131910D5068093D6069093D7062091E40621112C
S113192011C02091D106293278F021E02093E406F9
S11319306093DD067093DE068093DF069093E006E5
S113194041E003C040E001C040E02091E4062223CE
S113195081F12091DB063091DC06C090DD06D09049
S1131960DE06E090DF06F090E006C20ED31EE11C16
S1131970F11C6C157D058E059F05D8F06093DD067E
S11319807093DE068093DF069093E00686E490E091
S11319909093DC068093DB0641E00BC01092E406D2
S11319A01092D10688E592E09093DC068093DB06E2
S11319B040E09091E30698839091DA06F8019083D1
S11319C0842FDF91CF911F910F91FF90EF90DF90C3
S11319D0CF90089580E80E94731408951F93CF93C5
S11319E0DF938031B0F46830A0F4142FC62FD82FC1
S11319F081E00E949F146C2F677080E1689F9001C2
S1131A0011248D2F8F70822B0E949F14812F0E948E
S1131A109F14DF91CF911F9108950F931F93CF933C
S1131A208031A0F48B01C82F83E00E949F148C2F77
S1131A308F700E949F14C0E007C0F801EC0FF11DE5
S1131A4080810E949F14CF5FC830B8F3CF911F915B
S1131A500F91089584E00E949F1482E00E949F14D5
S1131A60089584E00E949F1481E00E949F140895C9
S1131A708FE00E949F140895609330060895682FA4
S1131A808091300690E8899FA00111248427982F23
S1131A909295969597708927282F30E0220F331F4F
S1131AA0220F331F220F331F8227809330060E9498
S1131AB0D016892F089540E060E07BE480E090E058
S1131AC00E9430130E94EA0C0E9470020E94691462
S1131AD00E94E8040E94EE020E94DA0B0E94D114D4
S1131AE078940895EF92FF920F931F93CF93C82F8A
S1131AF00E948002C33721F0C33511F08F3FD1F02B
S1131B00E0908605F090870500918805109189057D
S1131B1020918A0530918B0540918C0550918D055B
S1131B2060918E0570918F05809190050E946603E7
S1131B3080E001C081E0CF911F910F91FF90EF9061
S1131B400895873711F0873541F421E0462F61E08D
S1131B5080E00E94500881E00895813611F08134BC
S1131B6041F421E0462F60E08FEF0E94500881E0AD
S1131B700895833711F0833541F421E0462F6FEF48
S1131B8080E00E94500881E00895843611F0843486
S1131B9041F421E0462F60E081E00E94500881E09A
S1131BA00895823711F0823521F40E94EE0480E01A
S1131BB0089580E00895FF920F931F93CF93DF93CE
S1131BC0EC018B01F42E0E94E50BB801CE010E94BA
S1131BD0220C882349F021E04F2DF801608188818F
S1131BE00E945008811181E0DF91CF911F910F91E4
S1131BF0FF900895811105C081E00E94850981E06C
S1131C000895813029F482E00E94850981E00895D5
S1131C10823021F40E94EE0480E0089580E008956B
S1131C20853611F0853429F480E00E94E10A81E0D0
S1131C3008958D3611F08D3429F48AE50E94E10A65
S1131C4081E00895883611F0883429F48DE20E94E9
S1131C50E10A81E0089580E00895CF93823611F07F
S1131C608234D1F40E94B00AC82F6CE070E08AE09C
S1131C7090E00E94A5141F92CF9383E195E09F9377
S1131C808F930E946A178C2F0E945B060F900F900F
S1131C900F900F9081E001C080E0CF9108958133CF
S1131CA029F481E00E940F0B81E00895823329F426
S1131CB080E00E940F0B81E0089580E00895813751
S1131CC011F0813521F40E94950481E0089580E0AB
S1131CD00895CF930E94B6140E94C8146AE070E07D
S1131CE08AE090E00E94A51480E992E09F938F938C
S1131CF00E9480176CE070E08AE090E00E94A514D6
S1131D0084E692E09F938F930E9480170E94B1050E
S1131D1066E281E692E00E9499030E948313C82F31
S1131D200F900F900F900F900BC00E948313C82F39
S1131D300E945F0E882321F00E94BC040E94E504E7
S1131D408C2F0E94720D8111F0CFCF9108958037AE
S1131D5031F0803531F0633031F481E0089581E071
S1131D60089581E0089580E008950E94B6146AE021
S1131D7070E08AE090E00E94A5148BE592E09F93C6
S1131D808F930E9480176FE070E08AE090E00E94D9
S1131D90A51484E392E09F938F930E94801760E1DF
S1131DA070E08AE090E00E94A5148AE192E09F939B
S1131DB08F930E94801761E170E08AE090E00E94B6
S1131DC0A51480EF91E09F938F930E94801762E1A6
S1131DD070E08AE090E00E94A51481EC91E09F936A
S1131DE08F930E94801763E170E08AE090E00E9484
S1131DF0A51489EA91E09F938F930E9480178DB771
S1131E009EB70C960FB6F8949EBF0FBE8DBF089573
S1131E106DE070E08AE090E00E94A5140E94BF1477
S1131E200E94320B882349F084E991E09F938F93B9
S1131E300E9480170F900F90089580E891E09F937F
S1131E408F930E9480170F900F9008950E94B614EC
S1131E506AE070E08AE090E00E94A51480EF90E0D0
S1131E609F938F930E9480176BE070E08AE090E06C
S1131E700E94A5140E948D0B0F900F90803419F0CE
S1131E80803551F011C08DE195E09F938F930E94AE
S1131E906A170F900F9008C08CE295E09F938F9380
S1131EA00E946A170F900F906DE070E08AE090E056
S1131EB00E94A51487EC90E09F938F930E94801753
S1131EC06EE070E08AE090E00E94A5148FEA90E052
S1131ED09F938F930E9480170F900F900F900F90F5
S1131EE00895CF9361E183E094E00E9499030E94F6
S1131EF061020E94260F0E948313C82F0BC00E9408
S1131F008313C82F0E945F0E882321F00E94BC0413
S1131F100E94E5048C2F0E94720D8111F0CF0E9463
S1131F206D02CF910895CF930E940C0BC82F6BE0E4
S1131F3070E08AE090E00E94A5140E94BF14CD32A4
S1131F40F1F0CA3599F0C11122C08BE395E09F935B
S1131F508F930E946A1760E070E081E190E00E9434
S1131F60A5140E94BF140F900F9011C08CE495E04B
S1131F709F938F930E946A170F900F9008C08FE56C
S1131F8095E09F938F930E946A170F900F90CF91C3
S1131F9008950E94B61460E070E080E090E00E9432
S1131FA0A5148FE691E09F938F930E9480176AE0B7
S1131FB070E08AE090E00E94A51484E691E09F938B
S1131FC08F930E9480176CE070E08AE090E00E949A
S1131FD0A51486E591E09F938F930E9480176DE08E
S1131FE070E08AE090E00E94A5141F921F9280E79F
S1131FF095E09F938F930E946A176FE070E08AE0E8
S113200090E00E94A5148FE291E09F938F930E9429
S1132010801760E170E08AE090E00E94A51482E1FC
S113202091E09F938F930E94801761E170E08AE0B2
S113203090E00E94A5148AEF90E09F938F930E94F2
S113204080170E94930F8DB79EB740960FB6F894F1
S11320509EBF0FBE8DBF0895CF9360E080E00E94C5
S113206064140E94B50E0E94080F81E00E945B0672
S11320706CE070E08AE090E00E94A5141F9281E079
S11320808F9383E195E09F938F930E946A170E9438
S1132090930F0E948313C82F0F900F900F900F90EF
S11320A014C00E948313C82F0E945F0E8C2F0E94BD
S11320B02D0E8C2F0E944F0E81110E94080F8C2F21
S11320C00E94100E81110E94930F8C2F0E94720D9A
S11320D08111E7CF0E94C90F0E9446060E94800228
S11320E00E947E13CF9108950F931F93CF93DF9394
S11320F08C010E940C0B24E6829FC0011124EC0188
S1132100C01BD10B60E070E081E190E00E94A51457
S11321100E94BF14C93E83E0D807C0F09E013695E3
S1132120279536952795ABE7B4E10E941D17969540
S113213087959F938F938AE195E09F938F930E9455
S11321406A170F900F900F900F902DC0C93E23E097
S1132150D20748F5AE0156954795569547959A018D
S1132160ABE7B4E10E941D179695879564E6689FD6
S11321709001699F300D1124C21BD30BDF93CF93C1
S11321809A010E941D17969587959F938F9380E8D7
S113219095E09F938F930E946A170F900F900F9072
S11321A00F900F900F90DF91CF911F910F91089591
S11321B0CF93C82F6AE070E08AE090E00E94A514F3
S11321C00E94BF14CC2319F0C13051F011C084EA2D
S11321D090E09F938F930E9480170F900F9008C0F8
S11321E088E990E09F938F930E9480170F900F903F
S11321F0CF9108952F923F924F925F926F927F9268
S11322008F929F92AF92BF92CF92DF92EF92FF9202
S11322100F931F93CF93DF93CDB7DEB765970FB6B8
S1132220F894DEBF0FBECDBF19821A820E94E91452
S11322304B015C010E94E914688779878A879B8730
S11322400E94E9146C837D838E839F830E94E9142A
S11322506E877F87888B998B6894222426F8312C8B
S11322601B821D861C86412C512C32011A8A1B8A22
S11322701C8A1D8A66C10E948002082F0E94831353
S1132280182F0E94E9146B017C01602F812F0E949A
S1132290A70E882319F181E08319382E0E94D810E3
S11322A0332059F081E00E945E0281E00E94BF0465
S11322B0CA8ADB8AEC8AFD8A11C0260137018A8921
S11322C09B89AC89BD89481A590A6A0A7B0A0E940B
S11322D0E2040E94BF0480E00E945E02311031C11A
S11322E00E9413079DEC899F912D11249695969534
S11322F09695990F292F220F220F920F6B81891B1C
S11323000E946414812F0E945F0E882321F00E9492
S1132310BC040E94E504812F0E94100E81110E94CA
S1132320930F8E859F85A889B9892C853D85820F59
S1132330931FA11DB11DC816D906EA06FB06D8F1E4
S1132340422DBE016E5F7F4FCE0101960E94DB0DD0
S11323508823F1F0622D81E00E9492070E94320BE3
S113236081111DC0822D0E94D407282E80E00E9476
S1132370170CCE86DF86E88AF98ACC82DD82EE826B
S1132380FF824601570180E293E09D878C8713C04A
S1132390CE86DF86E88AF98A1D861C860CC0CE8626
S11323A0DF86E88AF98ACC82DD82EE82FF824601EA
S11323B057011D861C86622D802F0E94FA0D8823EA
S11323C0C9F0622D81E00E9492070E94320B8111B4
S11323D00BC0822D0E94D407282ECC82DD82EE828F
S11323E0FF824601570106C0CC82DD82EE82FF8265
S11323F046015701622D812F0E94A10D882351F0BF
S1132400622D81E00E949207CC82DD82EE82FF82FF
S1132410460157010E945E05882399F10E947005C8
S11324208B836DE070E08AE090E00E94A5141F9217
S11324309B819F9380E795E09F938F930E946A17F7
S1132440622D8B810E948509622D81E00E94920792
S11324500E94320B0F900F900F900F9081110BC0C0
S1132460822D0E94D407282ECC82DD82EE82FF8248
S11324704601570106C0CC82DD82EE82FF8246010E
S113248057018C819D81AE81BF810A96A11DB11D2A
S1132490C816D906EA06FB0668F00E940C0B8823CE
S11324A049F0822D0E94350B0E947410CC82DD828B
S11324B0EE82FF8288859985AA85BB85805B9F4FC4
S11324C0AF4FBF4FC816D906EA06FB0618F10E94A3
S11324D05B058823D9F00E9463058B836DE070E06F
S11324E08AE090E00E94A5141F92AB81AF9380E72D
S11324F095E09F938F930E946A170F900F900F900F
S11325000F90C886D986EA86FB8604C0C886D98619
S1132510EA86FB86D501C401840D951DA61DB71D51
S11325208C509E4FAF4FBF4FC816D906EA06FB0624
S113253040F0822D0E94760A46015701412C512C0D
S113254032010E94510B882309F495CE65960FB68B
S1132550F894DEBF0FBECDBFDF91CF911F910F91D5
S1132560FF90EF90DF90CF90BF90AF909F908F90AF
S11325707F906F905F904F903F902F9008950E94AE
S11325805B0D0E94690E0E942C100E94FA100E949A
S1132590710FF9CFCF93C82F8A3019F48DE00E94C0
S11325A0CA129FB7907802C0992329F18091E60658
S11325B08F3FD1F3F894E091E50681E08E0F80938C
S11325C0E506F0E0E951F94FC0838091E6068F5F9C
S11325D08093E6068091E5068F3F11F41092E5069C
S11325E0E1ECF0E0808180628083992339F0789473
S11325F080E090E005C081E090E002C080E090E0DF
S1132600CF9108958091F8078823E1F32FB72078BC
S1132610F8948091E6073091F80790E0831B9109C4
S11326205AF4E091E6078091F807F0E0E81BF1091D
S1132630E950F84F80810AC0E091E6078091F807DD
S1132640F0E0E81BF109E951F84F80819091F80717
S113265091509093F807222309F0789490E008951C
S11326601092E5061092E6061092E6071092F8071B
S11326701092F70740933106DC01CB01880F991FB4
S1132680AA1FBB1F880F991FAA1FBB1F9C01AD0166
S1132690220F331F441F551F60E072E18AE790E068
S11326A00E94FE16BA01A9014F5F5F4F6F4F7F4F23
S11326B0DB01CA011AF40196A11DB11DB595A795B8
S11326C09795879501979093C5008093C400E1EC9A
S11326D0F0E088E18083808180688083E0E0F8E036
S11326E08EEB94E093838283918380830895909109
S11326F0F80781E0911101C080E008951092E60787
S11327001092F80708950E947713882339F0809176
S11327100008909101080E942C1708958FEF0895E6
S11327201F920F920FB60F9211242F938F939F93A2
S1132730EF93FF938091E606882329F18091E506C3
S11327402091E60690E0821B91095AF4E091E50697
S11327508091E606F0E0E81BF109EA51F84F908118
S11327600AC0E091E5068091E606F0E0E81BF10975
S1132770E951F94F90818091E60681508093E606F5
S11327809093C60005C0E1ECF0E080818F7D8083EA
S1132790FF91EF919F918F912F910F900FBE0F900A
S11327A01F9018951F920F920FB60F9211242F931A
S11327B03F934F935F936F937F938F939F93AF93C5
S11327C0BF93CF93EF93FF93C091C60080913106DE
S11327D0882349F08091E6068F3F29F060E070E09D
S11327E08C2F0E94CA128091F807803120F081E07A
S11327F08093F70718C0CD3009F4CAE0E091E607EA
S113280081E08E0F8093E607F0E0E951F84FC08332
S11328108091F8078F5F8093F8078091E6078031F5
S113282011F41092E607FF91EF91CF91BF91AF9110
S11328309F918F917F916F915F914F913F912F91D4
S11328400F900FBE0F901F9018950F931F930E9427
S1132850E9140091FA071091FB072091FC073091CD
S1132860FD070B5F1F4F2F4F3F4F60177107820704
S1132870930738F12091FE07222359F02BB12460ED
S11328802BB9E091F907F0E0EF56FA4F208128B90F
S11328900AC02BB12B7F2BB9E091FF07F0E0EF5674
S11328A0FA4F208128B92091FE0731E0321B309382
S11328B0FE076093FA077093FB078093FC079093DD
S11328C0FD071F910F9108958093F9076093FF0707
S11328D008958FEF87B98AB184608AB960E080E097
S11328E00E946414089594B1906B94B995B1906169
S11328F095B990E59CBD883021F0803211F082308A
S113290019F491E09DBD01C01DBC803269F028F42A
S1132910883071F0803161F00EC0803429F0803845
S113292051F48CB581608CBD8CB582608CBD03C0C4
S11329308CB581608CBD85B18F7E85B908958EBDBF
S11329400DB407FEFDCF8EB508959F938F937F93AB
S11329506F9383EB92E09F938F930E9480170F9065
S11329600F900F900F900F900F9008958EEA92E0C1
S11329709F938F930E9480170F900F9008958AEA77
S113298092E09F938F930E9480170F900F90089569
S113299083EA92E09F938F930E9480170F900F9089
S11329A00895109232061092330610923406109253
S11329B0350616BC8CE787BD82E084BD83E085BD07
S11329C0EEE6F0E080818260808385B3827085BB0F
S11329D008958FB7282F2078F8946091320670916B
S11329E033068091340690913506222309F07894B9
S11329F008951F920F920FB60F9211242F933F93B5
S1132A004F935F936F937F938F939F93AF93BF93F2
S1132A10EF93FF938091320690913306A091340690
S1132A20B09135060196A11DB11D80933206909395
S1132A303306A0933406B09335060E94D8030E944F
S1132A400F020E942514FF91EF91BF91AF919F91C6
S1132A508F917F916F915F914F913F912F910F9043
S1132A600FBE0F901F9018950E9448150C942916BC
S1132A700E94221658F00E941B1640F029F45F3F72
S1132A8029F00C94121651110C945D160C9418161E
S1132A900E943A1668F39923B1F3552391F3951BD9
S1132AA0550BBB27AA2762177307840738F09F5F6B
S1132AB05F4F220F331F441FAA1FA9F335D00E2ED8
S1132AC03AF0E0E832D091505040E695001CCAF745
S1132AD02BD0FE2F29D0660F771F881FBB1F261708
S1132AE037074807AB07B0E809F0BB0B802DBF01DF
S1132AF0FF2793585F4F3AF09E3F510578F00C94AE
S1132B0012160C945D165F3FE4F3983ED4F3869559
S1132B1077956795B795F7959F5FC9F7880F911DCE
S1132B209695879597F90895E1E0660F771F881FBA
S1132B30BB1F621773078407BA0720F0621B730B6D
S1132B40840BBA0BEE1F88F7E09508950E94421695
S1132B5088F09F5798F0B92F9927B751B0F0E1F05A
S1132B60660F771F881F991F1AF0BA95C9F714C00A
S1132B70B13091F00E945C16B1E008950C945C169B
S1132B80672F782F8827B85F39F0B93FCCF3869543
S1132B9077956795B395D9F73EF4909580957095A0
S1132BA061957F4F8F4F9F4F0895E89409C097FB1D
S1132BB03EF490958095709561957F4F8F4F9F4F10
S1132BC09923A9F0F92F96E9BB279395F695879554
S1132BD077956795B795F111F8CFFAF4BB0F11F417
S1132BE060FF1BC06F5F7F4F8F4F9F4F16C08823BE
S1132BF011F096E911C0772321F09EE8872F762FF4
S1132C0005C0662371F096E8862F70E060E02AF034
S1132C109A95660F771F881FDAF7880F9695879520
S1132C2097F9089597F99F6780E870E060E0089548
S1132C309FEF80EC089500240A94161617061806D0
S1132C400906089500240A941216130614060506AC
S1132C500895092E0394000C11F4882352F0BB0F3D
S1132C6040F4BF2B11F460FF04C06F5F7F4F8F4FA0
S1132C709F4F089557FD9058440F551F59F05F3FDB
S1132C8071F04795880F97FB991F61F09F3F79F08A
S1132C9087950895121613061406551FF2CF46950C
S1132CA0F1DF08C0161617061806991FF1CF86958E
S1132CB07105610508940895E894BB276627772772
S1132CC0CB0197F908950E9476160C9429160E9458
S1132CD01B1638F00E94221620F0952311F00C9454
S1132CE012160C94181611240C945D160E943A16B0
S1132CF070F3959FC1F3950F50E0551F629FF0014B
S1132D00729FBB27F00DB11D639FAA27F00DB11D63
S1132D10AA1F649F6627B00DA11D661F829F2227EC
S1132D20B00DA11D621F739FB00DA11D621F839F73
S1132D30A00D611D221F749F3327A00D611D231F49
S1132D40849F600D211D822F762F6A2F11249F5797
S1132D5050409AF0F1F088234AF0EE0FFF1FBB1F9A
S1132D60661F771F881F91505040A9F79E3F510559
S1132D7080F00C9412160C945D165F3FE4F3983EB9
S1132D80D4F3869577956795B795F795E7959F5F03
S1132D90C1F7FE2B880F911D9695879597F9089595
S1132DA0991B79E004C0991F961708F0961B881F99
S1132DB07A95C9F780950895A1E21A2EAA1BBB1B28
S1132DC0FD010DC0AA1FBB1FEE1FFF1FA217B307F3
S1132DD0E407F50720F0A21BB30BE40BF50B661F09
S1132DE0771F881F991F1A9469F7609570958095CD
S1132DF090959B01AC01BD01CF010895052E97FB71
S1132E001EF400940E94151757FD07D00E94DC168B
S1132E1007FC03D04EF40C9415175095409530954B
S1132E2021953F4F4F4F5F4F089590958095709532
S1132E3061957F4F8F4F9F4F0895A29FB001B39F1D
S1132E40C001A39F700D811D1124911DB29F700DAF
S1132E50811D1124911D0895CF93DF93EC012B81E3
S1132E6020FF33C026FF0AC02F7B2B838E819F81D6
S1132E7001969F838E838A8190E029C022FF0FC030
S1132E80E881F9818081082E000C990B009719F4D0
S1132E9020622B831AC03196F983E8830EC0EA8539
S1132EA0FB85099597FF09C02B81019611F080E2FB
S1132EB001C080E1822B8B8308C02E813F812F5F6C
S1132EC03F4F3F832E83992702C08FEF9FEFDF91FF
S1132ED0CF910895A0E0B0E0E0E7F7E10C94471A41
S1132EE0AE014B5F5F4FFA0161917191AF01809127
S1132EF00208909103080E94A617E2E00C94631A5A
S1132F00A0E0B0E0E6E8F7E10C94451AAE01495FB1
S1132F105F4FDA016D917D91AD0100E018E0F80199
S1132F2082819381DC0113962C9113972860139668
S1132F302C930E94A617D8011296ED91FC91139739
S1132F402381277F2383E4E00C94611AABE0B0E093
S1132F50ECEAF7E10C94371A6C017B018A01FC015D
S1132F6017821682838181FFCCC1CE0101963C0178
S1132F70F6019381F70193FD859193FF81917F0180
S1132F80882309F4BAC1853239F493FD859193FFFE
S1132F9081917F01853229F4B60190E00E949D1948
S1132FA0E7CF912C212C312CFFE1F315D8F08B3293
S1132FB079F038F4803279F08332A1F4232D206142
S1132FC01DC08D3261F0803369F4232D216016C059
S1132FD0832D8260382EE32DE4603E2E2AC0F32D2B
S1132FE0F8601DC037FC2DC020ED280F2A3040F0BA
S1132FF08E32B9F436FC81C1232D2064322E19C0DF
S113300036FE06C08AE0989E200D1124922E11C02F
S1133010EAE02E9E200D1124222EF32DF0623F2E85
S113302008C08C3621F4832D8068382E02C088367F
S113303041F4F70193FD859193FF81917F01811103
S1133040B3CF982F9F7D9554933028F40C5F1F4F76
S11330509FE399830DC0833631F0833771F0833554
S113306009F059C021C0F801808189830E5F1F4F88
S113307088248394912C530113C02801F2E04F0E4D
S1133080511CF801A080B18036FE03C0692D70E0A8
S113309002C06FEF7FEFC5010E9492194C018201BB
S11330A0F32DFF773F2E16C0280122E0420E511C5B
S11330B0F801A080B18036FE03C0692D70E002C023
S11330C06FEF7FEFC5010E9487194C01F32DF06863
S11330D03F2E820133FC1BC0822D90E08816990696
S11330E0B0F4B60180E290E00E949D192A94F4CFD6
S11330F0F50137FC859137FE81915F01B60190E0BF
S11331000E949D1921102A9421E0821A91088114A9
S1133110910471F7E8C0843611F0893641F5F8015D
S113312037FE07C060817181828193810C5F1F4FDC
S113313008C060817181072E000C880B990B0E5F0B
S11331401F4FF32DFF763F2E97FF09C09095809572
S1133150709561957F4F8F4F9F4FF0683F2E2AE007
S113316030E0A3010E94D919882E861845C08537FE
S113317031F4232D2F7EB22E2AE030E025C0932D8A
S1133180997FB92E8F36C1F018F4883579F0B5C01F
S1133190803719F0883721F0B0C0E92FE061BE2EE6
S11331A0B4FE0DC0FB2DF460BF2E09C034FE0AC06E
S11331B0292F2660B22E06C028E030E005C020E1A9
S11331C030E002C020E132E0F801B7FE07C06081C0
S11331D07181828193810C5F1F4F06C06081718170
S11331E080E090E00E5F1F4FA3010E94D919882E42
S11331F08618FB2DFF773F2E36FE0DC0232D2E7F24
S1133200A22E891458F434FE0BC032FC09C0832D5D
S11332108E7EA82E05C0B82CA32C03C0B82C01C0E8
S1133220B92CA4FE0FC0FE01E80DF11D808180338E
S113323021F49A2D997EA92E09C0A2FE06C0B3944A
S1133240B39404C08A2D867809F0B394A3FC11C00A
S1133250A0FE06C0B21488F4280C922C9B180EC051
S1133260B21460F4B60180E290E00E949D19B39418
S1133270F7CFB21418F42B1802C0982C212CA4FEFA
S113328010C0B60180E390E00E949D19A2FE17C011
S1133290A1FC03C088E790E002C088E590E0B60195
S11332A00CC08A2D867859F0A1FE02C08BE201C0C1
S11332B080E2A7FC8DE2B60190E00E949D1989147A
S11332C038F4B60180E390E00E949D199A94F7CFF8
S11332D08A94F301E80DF11D8081B60190E00E940B
S11332E09D198110F5CF222009F442CEB60180E267
S11332F090E00E949D192A94F6CFF6018681978169
S113330002C08FEF9FEF2B96E2E10C94531AFC015D
S11333100590615070400110D8F7809590958E0FFC
S11333209F1F0895FC016150704001900110D8F76F
S1133330809590958E0F9F1F08950F931F93CF93A1
S1133340DF93FB01238121FD03C08FEF9FEF2CC08E
S113335022FF16C0468157812481358142175307C5
S113336044F4A081B1819D012F5F3F4F31832083BD
S11333708C93268137812F5F3F4F3783268314C078
S11333808B01EC01FB010084F185E02D0995892B6B
S1133390E1F6D80116968D919C9117970196179690
S11333A09C938E931697CE01DF91CF911F910F912D
S11333B00895FA01AA27283051F1203181F1E894C7
S11333C06F936E7F6E5F7F4F8F4F9F4FAF4FB1E014
S11333D03ED0B4E03CD0670F781F891F9A1FA11D0F
S11333E0680F791F8A1F911DA11D6A0F711D811D10
S11333F0911DA11D20D009F468943F912AE0269FD5
S113340011243019305D3193DEF6CF010895462F33
S11334104770405D4193B3E00FD0C9F7F6CF462F14
S11334204F70405D4A3318F0495D31FD405241937D
S113343002D0A9F7EACFB4E0A6959795879577953A
S11334406795BA95C9F700976105710508959B01C1
S1133450AC010A2E06945795479537952795BA954A
S1133460C9F7620F731F841F951FA01D08952F9223
S11334703F924F925F926F927F928F929F92AF9200
S1133480BF92CF92DF92EF92FF920F931F93CF934D
S1133490DF93CDB7DEB7CA1BDB0B0FB6F894DEBFE4
S11334A00FBECDBF09942A88398848885F846E840A
S11334B07D848C849B84AA84B984C884DF80EE8054
S11334C0FD800C811B81AA81B981CE0FD11D0FB65D
S11334D0F894DEBF0FBECDBFED010895F894FFCF81
S11334E00000407C404C4478003844447C44440010
S11334F0446C54444444007C40407040407C000090
S1133500007C444444447C00444444442810007CEB
S113351040407040407C007C4444784444000101B5
S11335207C010000F0410590010000000000000053
S11335300000640000008A0200003442EC32000003
S11335400020008400D40000000000A00000E0007F
S113355000000094000000C483000000000000A0EC
S113356000D30000D200A00000E0000000F0000042
S113357000E00000A000E00000E00093000000E094
S113358000E0000000000082C2C30000000000A0B0
S113359000000000000000A000008100D10000A095
S11335A0000000A0E000009200000000F000000015
S11335B000000000E0A0000000100000C100910025
S11335C000200000000000000000840000D400007F
S11335D00000A000E00000000000A0C40000000003
S11335E000009400000000830000000000D300A04D
S11335F00082000000E000A00000A00000C30093CF
S11336000000009200000000000000000000000024
S11336100000000000000000000000008100000025
S1133620D100D200A00000E00000E000A000C10032
S11336300000C200A0000000001000009100000083
S11336400093020000484200C8000000EE010000A0
S1133650484200640000000B02000048420064007D
S113366000004B020000484200C80000000B0200AA
S11336700048420064000000EE010000484200647B
S1133680000000B8010000484200C8000000B80172
S11336900000484200640000000B020000484200A1
S11336A06400000093020000484200C80000004B80
S11336B0020000484200640000000B02000048427F
S11336C00064000000EE0100004842002C010000EC
S11336D00B020000484200640000004B0200004856
S11336E04200C800000093020000484200C80000E5
S11336F0000B020000484200C8000000B8010000AE
S1133700484200C8000000B80100004842006400BC
S11337100000B8010000484200C8000000EE0100AB
S113372000484200640000000B02000048420064AC
S11337300000004B0200004842002C010000BA02C5
S1133740000048420064000000700300004842008A
S1133750C80000001003000048420064000000BAE2
S11337600200004842006400000093020000484246
S1133770002C0100000B020000484200640000001D
S113378093020000484200C80000004B02000048B9
S11337904200640000000B02000048420064000084
S11337A000EE010000484200C8000000EE010000E5
S11337B0484200640000000B02000048420064001C
S11337C000004B020000484200C8000000930200C1
S11337D000484200C80000000B020000484200C834
S11337E000000093020000484200900100000B0218
S11337F00000484200900100004B020000484200D3
S113380090010000EE010000484200900100000B0E
S113381002000048420090010000B8010000484244
S113382000900100009F0100004842009001000048
S1133830EE010000484200C8000000000000000043
S11338400000C800000093020000484200900100FC
S1133850000B020000484200900100004B020000EF
S113386048420090010000EE01000048420090012F
S113387000000B020000484200C800000093020050
S113388000484200C8000000700300004842009055
S11338900100003F030000484200900100000000C6
S11338A0000300000000CA1202130000BC02000062
S11338B048420532000000BC0200004842053200C4
S11338C0000075555D7C407C7D116D007C04047D99
S11338D045390C0300004842FBF401000044020097
S11338E000C8410550000000BC02000048420532F7
S11338F00000004C6576656C3A20256400506C61CC
S113390079657220312057696E732100506C61799A
S1133910657220322057696E7321004469666669B6
S113392063756C74793A20456173790044696666FD
S11339306963756C74793A204D656469756D0044EA
S11339406966666963756C74793A204861726400CB
S113395044696365204E756D6265723A2025640082
S113396025643A256400BC02000048420532000088
S1133970003F065B4F666D7D077F6F777C395E790C
S10539807100D0
S9030000FC
